{
  "contractName": "Forwarder",
  "abi": [
    {
      "inputs": [],
      "stateMutability": "nonpayable",
      "type": "constructor"
    },
    {
      "inputs": [],
      "name": "ECDSAInvalidSignature",
      "type": "error"
    },
    {
      "inputs": [
        {
          "internalType": "uint256",
          "name": "length",
          "type": "uint256"
        }
      ],
      "name": "ECDSAInvalidSignatureLength",
      "type": "error"
    },
    {
      "inputs": [
        {
          "internalType": "bytes32",
          "name": "s",
          "type": "bytes32"
        }
      ],
      "name": "ECDSAInvalidSignatureS",
      "type": "error"
    },
    {
      "inputs": [
        {
          "internalType": "address",
          "name": "owner",
          "type": "address"
        }
      ],
      "name": "OwnableInvalidOwner",
      "type": "error"
    },
    {
      "inputs": [
        {
          "internalType": "address",
          "name": "account",
          "type": "address"
        }
      ],
      "name": "OwnableUnauthorizedAccount",
      "type": "error"
    },
    {
      "inputs": [],
      "name": "ReentrancyGuardReentrantCall",
      "type": "error"
    },
    {
      "anonymous": false,
      "inputs": [
        {
          "indexed": false,
          "internalType": "string",
          "name": "message",
          "type": "string"
        }
      ],
      "name": "Debug",
      "type": "event"
    },
    {
      "anonymous": false,
      "inputs": [
        {
          "indexed": true,
          "internalType": "address",
          "name": "previousOwner",
          "type": "address"
        },
        {
          "indexed": true,
          "internalType": "address",
          "name": "newOwner",
          "type": "address"
        }
      ],
      "name": "OwnershipTransferred",
      "type": "event"
    },
    {
      "anonymous": false,
      "inputs": [
        {
          "indexed": true,
          "internalType": "address",
          "name": "from",
          "type": "address"
        },
        {
          "indexed": true,
          "internalType": "address",
          "name": "to",
          "type": "address"
        },
        {
          "indexed": false,
          "internalType": "uint256",
          "name": "value",
          "type": "uint256"
        },
        {
          "indexed": false,
          "internalType": "bytes",
          "name": "data",
          "type": "bytes"
        },
        {
          "indexed": false,
          "internalType": "bool",
          "name": "success",
          "type": "bool"
        }
      ],
      "name": "TransactionForwarded",
      "type": "event"
    },
    {
      "anonymous": false,
      "inputs": [
        {
          "indexed": true,
          "internalType": "address",
          "name": "token",
          "type": "address"
        },
        {
          "indexed": true,
          "internalType": "address",
          "name": "from",
          "type": "address"
        },
        {
          "indexed": true,
          "internalType": "address",
          "name": "to",
          "type": "address"
        },
        {
          "indexed": false,
          "internalType": "uint256",
          "name": "amount",
          "type": "uint256"
        }
      ],
      "name": "TransferForwarded",
      "type": "event"
    },
    {
      "inputs": [],
      "name": "owner",
      "outputs": [
        {
          "internalType": "address",
          "name": "",
          "type": "address"
        }
      ],
      "stateMutability": "view",
      "type": "function",
      "constant": true
    },
    {
      "inputs": [],
      "name": "renounceOwnership",
      "outputs": [],
      "stateMutability": "nonpayable",
      "type": "function"
    },
    {
      "inputs": [
        {
          "internalType": "address",
          "name": "newOwner",
          "type": "address"
        }
      ],
      "name": "transferOwnership",
      "outputs": [],
      "stateMutability": "nonpayable",
      "type": "function"
    },
    {
      "stateMutability": "payable",
      "type": "receive",
      "payable": true
    },
    {
      "inputs": [
        {
          "internalType": "address",
          "name": "from",
          "type": "address"
        }
      ],
      "name": "getNonce",
      "outputs": [
        {
          "internalType": "uint256",
          "name": "",
          "type": "uint256"
        }
      ],
      "stateMutability": "view",
      "type": "function",
      "constant": true
    },
    {
      "inputs": [
        {
          "components": [
            {
              "internalType": "address",
              "name": "from",
              "type": "address"
            },
            {
              "internalType": "address",
              "name": "to",
              "type": "address"
            },
            {
              "internalType": "uint256",
              "name": "value",
              "type": "uint256"
            },
            {
              "internalType": "uint256",
              "name": "gas",
              "type": "uint256"
            },
            {
              "internalType": "uint256",
              "name": "nonce",
              "type": "uint256"
            },
            {
              "internalType": "bytes",
              "name": "data",
              "type": "bytes"
            },
            {
              "internalType": "uint256",
              "name": "validUntil",
              "type": "uint256"
            }
          ],
          "internalType": "struct Forwarder.ForwardRequest",
          "name": "req",
          "type": "tuple"
        },
        {
          "internalType": "bytes",
          "name": "signature",
          "type": "bytes"
        }
      ],
      "name": "verify",
      "outputs": [
        {
          "internalType": "bool",
          "name": "",
          "type": "bool"
        }
      ],
      "stateMutability": "pure",
      "type": "function",
      "constant": true
    },
    {
      "inputs": [
        {
          "components": [
            {
              "internalType": "address",
              "name": "from",
              "type": "address"
            },
            {
              "internalType": "address",
              "name": "to",
              "type": "address"
            },
            {
              "internalType": "uint256",
              "name": "value",
              "type": "uint256"
            },
            {
              "internalType": "uint256",
              "name": "gas",
              "type": "uint256"
            },
            {
              "internalType": "uint256",
              "name": "nonce",
              "type": "uint256"
            },
            {
              "internalType": "bytes",
              "name": "data",
              "type": "bytes"
            },
            {
              "internalType": "uint256",
              "name": "validUntil",
              "type": "uint256"
            }
          ],
          "internalType": "struct Forwarder.ForwardRequest",
          "name": "req",
          "type": "tuple"
        },
        {
          "internalType": "bytes",
          "name": "signature",
          "type": "bytes"
        }
      ],
      "name": "execute",
      "outputs": [
        {
          "internalType": "bool",
          "name": "",
          "type": "bool"
        },
        {
          "internalType": "bytes",
          "name": "",
          "type": "bytes"
        }
      ],
      "stateMutability": "payable",
      "type": "function",
      "payable": true
    },
    {
      "inputs": [
        {
          "internalType": "address",
          "name": "token",
          "type": "address"
        },
        {
          "internalType": "address",
          "name": "from",
          "type": "address"
        },
        {
          "internalType": "address",
          "name": "to",
          "type": "address"
        },
        {
          "internalType": "uint256",
          "name": "amount",
          "type": "uint256"
        },
        {
          "internalType": "bytes",
          "name": "signature",
          "type": "bytes"
        }
      ],
      "name": "forwardERC20Transfer",
      "outputs": [
        {
          "internalType": "bool",
          "name": "",
          "type": "bool"
        }
      ],
      "stateMutability": "nonpayable",
      "type": "function"
    },
    {
      "inputs": [
        {
          "internalType": "address",
          "name": "token",
          "type": "address"
        },
        {
          "internalType": "address",
          "name": "from",
          "type": "address"
        },
        {
          "internalType": "address",
          "name": "to",
          "type": "address"
        },
        {
          "internalType": "uint256",
          "name": "tokenId",
          "type": "uint256"
        },
        {
          "internalType": "bytes",
          "name": "signature",
          "type": "bytes"
        }
      ],
      "name": "forwardERC721Transfer",
      "outputs": [
        {
          "internalType": "bool",
          "name": "",
          "type": "bool"
        }
      ],
      "stateMutability": "nonpayable",
      "type": "function"
    },
    {
      "inputs": [
        {
          "internalType": "address",
          "name": "token",
          "type": "address"
        },
        {
          "internalType": "address",
          "name": "from",
          "type": "address"
        },
        {
          "internalType": "address",
          "name": "to",
          "type": "address"
        },
        {
          "internalType": "uint256",
          "name": "amount",
          "type": "uint256"
        },
        {
          "internalType": "uint256",
          "name": "fee",
          "type": "uint256"
        },
        {
          "internalType": "uint256",
          "name": "deadline",
          "type": "uint256"
        },
        {
          "internalType": "uint8",
          "name": "v",
          "type": "uint8"
        },
        {
          "internalType": "bytes32",
          "name": "r",
          "type": "bytes32"
        },
        {
          "internalType": "bytes32",
          "name": "s",
          "type": "bytes32"
        }
      ],
      "name": "forwardERC20TransferWithPermit",
      "outputs": [
        {
          "internalType": "bool",
          "name": "",
          "type": "bool"
        }
      ],
      "stateMutability": "nonpayable",
      "type": "function"
    },
    {
      "inputs": [
        {
          "internalType": "address",
          "name": "token",
          "type": "address"
        },
        {
          "internalType": "address",
          "name": "from",
          "type": "address"
        },
        {
          "internalType": "address",
          "name": "to",
          "type": "address"
        },
        {
          "internalType": "uint256",
          "name": "amount",
          "type": "uint256"
        },
        {
          "internalType": "uint256",
          "name": "deadline",
          "type": "uint256"
        },
        {
          "internalType": "uint8",
          "name": "v",
          "type": "uint8"
        },
        {
          "internalType": "bytes32",
          "name": "r",
          "type": "bytes32"
        },
        {
          "internalType": "bytes32",
          "name": "s",
          "type": "bytes32"
        }
      ],
      "name": "forwardTransferWithPermit",
      "outputs": [
        {
          "internalType": "bool",
          "name": "",
          "type": "bool"
        }
      ],
      "stateMutability": "nonpayable",
      "type": "function"
    }
  ],
  "bytecode": "0x608060405234801561000f575f80fd5b50338061003557604051631e4fbdf760e01b81525f600482015260240160405180910390fd5b61003e81610048565b5060018055610097565b5f80546001600160a01b038381166001600160a01b0319831681178455604051919092169283917f8be0079c531659141344cd1fd0a4f28419497f9722a3daafe3b4186f6b6457e09190a35050565b611761806100a45f395ff3fe608060405260043610610092575f3560e01c80637856940b116100575780637856940b146101695780638da5cb5b1461018857806390c62e05146101ae578063b482f03f146101cd578063f2fde38b146101ec575f80fd5b8063019fe8851461009d5780632d0335ab146100d157806344d46c8e146101135780636ea1666914610134578063715018a614610153575f80fd5b3661009957005b5f80fd5b3480156100a8575f80fd5b506100bc6100b7366004611234565b61020b565b60405190151581526020015b60405180910390f35b3480156100dc575f80fd5b506101056100eb366004611310565b6001600160a01b03165f9081526002602052604090205490565b6040519081526020016100c8565b610126610121366004611234565b610301565b6040516100c892919061137d565b34801561013f575f80fd5b506100bc61014e3660046113af565b610610565b34801561015e575f80fd5b506101676109d4565b005b348015610174575f80fd5b506100bc61018336600461142e565b6109e7565b348015610193575f80fd5b505f546040516001600160a01b0390911681526020016100c8565b3480156101b9575f80fd5b506100bc6101c836600461142e565b610b08565b3480156101d8575f80fd5b506100bc6101e73660046114a8565b610c11565b3480156101f7575f80fd5b50610167610206366004611310565b610e35565b5f80845f015185602001518660400151876060015188608001518960a001518a60c00151604051602001610245979695949392919061151e565b60408051601f198184030181529082905280516020918201207f19457468657265756d205369676e6564204d6573736167653a0a33320000000091830191909152603c820152605c016040516020818303038152906040528051906020012090505f6102e68286868080601f0160208091040260200160405190810160405280939291908181526020018383808284375f92019190915250610e7292505050565b86516001600160a01b03918216911614925050509392505050565b5f606061030c610e9c565b8460c001514211156103575760405162461bcd60e51b815260206004820152600f60248201526e14995c5d595cdd08195e1c1a5c9959608a1b60448201526064015b60405180910390fd5b608085015185516001600160a01b03165f90815260026020526040902054146103b25760405162461bcd60e51b815260206004820152600d60248201526c496e76616c6964206e6f6e636560981b604482015260640161034e565b333014610404576103c485858561020b565b6104045760405162461bcd60e51b8152602060048201526011602482015270496e76616c6964207369676e617475726560781b604482015260640161034e565b84516001600160a01b03165f90815260026020526040812080549161042883611582565b91905055505f858585604051602001610443939291906115c2565b60408051601f1981840301815291815281516020928301205f818152600390935291205490915060ff16156104ba5760405162461bcd60e51b815260206004820152601860248201527f5265717565737420616c72656164792065786563757465640000000000000000604482015260640161034e565b5f818152600360209081526040808320805460ff191660011790559088015160608901518983015160a08b0151935185946001600160a01b03909416936105009161163b565b5f60405180830381858888f193505050503d805f811461053b576040519150601f19603f3d011682016040523d82523d5f602084013e610540565b606091505b509150915087602001516001600160a01b0316885f01516001600160a01b03167fb1d0cf95fb035eb4bb0e6865967f56691645c2e18b41546195e1b2125266ab0f8a604001518b60a001518660405161059b93929190611656565b60405180910390a3816105f9578051156105b85780518082602001fd5b60405162461bcd60e51b8152602060048201526016602482015275119bdc9dd85c99081c995c5d595cdd0819985a5b195960521b604482015260640161034e565b90935091505061060860018055565b935093915050565b5f610619610e9c565b336001600160a01b038916146106715760405162461bcd60e51b815260206004820152601a60248201527f4f6e6c7920726563697069656e742063616e2065786563757465000000000000604482015260640161034e565b6001600160a01b038a166106bf5760405162461bcd60e51b8152602060048201526015602482015274496e76616c696420746f6b656e206164647265737360581b604482015260640161034e565b6001600160a01b03891661070c5760405162461bcd60e51b8152602060048201526014602482015273496e76616c69642066726f6d206164647265737360601b604482015260640161034e565b6001600160a01b0388166107575760405162461bcd60e51b8152602060048201526012602482015271496e76616c696420746f206164647265737360701b604482015260640161034e565b5f87116107a65760405162461bcd60e51b815260206004820152601d60248201527f416d6f756e74206d7573742062652067726561746572207468616e2030000000604482015260640161034e565b428510156107e75760405162461bcd60e51b815260206004820152600e60248201526d14195c9b5a5d08195e1c1a5c995960921b604482015260640161034e565b6001600160a01b038a1663d505accf8a306108028a8c611680565b898989896040518863ffffffff1660e01b81526004016108289796959493929190611693565b5f604051808303815f87803b15801561083f575f80fd5b505af1158015610851573d5f803e3d5ffd5b50506040516323b872dd60e01b81526001600160a01b038d1692506323b872dd9150610885908c908c908c906004016116d4565b6020604051808303815f875af11580156108a1573d5f803e3d5ffd5b505050506040513d601f19601f820116820180604052508101906108c591906116f8565b6109035760405162461bcd60e51b815260206004820152600f60248201526e151c985b9cd9995c8819985a5b1959608a1b604482015260640161034e565b85156109bb576040516323b872dd60e01b81526001600160a01b038b16906323b872dd90610939908c9033908b906004016116d4565b6020604051808303815f875af1158015610955573d5f803e3d5ffd5b505050506040513d601f19601f8201168201806040525081019061097991906116f8565b6109bb5760405162461bcd60e51b8152602060048201526013602482015272119959481d1c985b9cd9995c8819985a5b1959606a1b604482015260640161034e565b5060016109c760018055565b9998505050505050505050565b6109dc610ec6565b6109e55f610ef2565b565b5f6109f0610e9c565b5f6323b872dd60e01b878787604051602401610a0e939291906116d4565b60408051601f19818403018152918152602080830180516001600160e01b03166001600160e01b031990951694909417909352805160e0810182526001600160a01b03808c16808352908d16828601525f828401819052620186a06060840152908152600290945290832054608082015260a0810182905290925060c08101610a9942610e10611680565b905290505f610aa9828787610301565b50905080610af15760405162461bcd60e51b8152602060048201526015602482015274115490cdcc8c48199bdc9dd85c990819985a5b1959605a1b604482015260640161034e565b92505050610afe60018055565b9695505050505050565b5f610b11610e9c565b5f6323b872dd60e01b878787604051602401610b2f939291906116d4565b60408051601f19818403018152918152602080830180516001600160e01b03166001600160e01b031990951694909417909352805160e0810182526001600160a01b03808c16808352908d16828601525f828401819052620186a06060840152908152600290945290832054608082015260a0810182905290925060c08101610bba42610e10611680565b905290505f610bca828787610301565b50905080610af15760405162461bcd60e51b8152602060048201526014602482015273115490cc8c08199bdc9dd85c990819985a5b195960621b604482015260640161034e565b5f610c1a610e9c565b336001600160a01b03881614610c725760405162461bcd60e51b815260206004820152601a60248201527f4f6e6c7920726563697069656e742063616e2065786563757465000000000000604482015260640161034e565b42851015610cb35760405162461bcd60e51b815260206004820152600e60248201526d14195c9b5a5d08195e1c1a5c995960921b604482015260640161034e565b60405163d505accf60e01b81526001600160a01b038a169063d505accf90610ceb908b9030908b908b908b908b908b90600401611693565b5f604051808303815f87803b158015610d02575f80fd5b505af1158015610d14573d5f803e3d5ffd5b50506040516323b872dd60e01b81526001600160a01b038c1692506323b872dd9150610d48908b908b908b906004016116d4565b6020604051808303815f875af1158015610d64573d5f803e3d5ffd5b505050506040513d601f19601f82011682018060405250810190610d8891906116f8565b610dc65760405162461bcd60e51b815260206004820152600f60248201526e151c985b9cd9995c8819985a5b1959608a1b604482015260640161034e565b866001600160a01b0316886001600160a01b03168a6001600160a01b03167fc8d92a937438148eb516855893f0fbaee72876e8b0f9eb1e1afac56e5affab3b89604051610e1591815260200190565b60405180910390a4506001610e2960018055565b98975050505050505050565b610e3d610ec6565b6001600160a01b038116610e6657604051631e4fbdf760e01b81525f600482015260240161034e565b610e6f81610ef2565b50565b5f805f80610e808686610f41565b925092509250610e908282610f8a565b50909150505b92915050565b600260015403610ebf57604051633ee5aeb560e01b815260040160405180910390fd5b6002600155565b5f546001600160a01b031633146109e55760405163118cdaa760e01b815233600482015260240161034e565b5f80546001600160a01b038381166001600160a01b0319831681178455604051919092169283917f8be0079c531659141344cd1fd0a4f28419497f9722a3daafe3b4186f6b6457e09190a35050565b5f805f8351604103610f78576020840151604085015160608601515f1a610f6a88828585611046565b955095509550505050610f83565b505081515f91506002905b9250925092565b5f826003811115610f9d57610f9d611717565b03610fa6575050565b6001826003811115610fba57610fba611717565b03610fd85760405163f645eedf60e01b815260040160405180910390fd5b6002826003811115610fec57610fec611717565b0361100d5760405163fce698f760e01b81526004810182905260240161034e565b600382600381111561102157611021611717565b03611042576040516335e2f38360e21b81526004810182905260240161034e565b5050565b5f80807f7fffffffffffffffffffffffffffffff5d576e7357a4501ddfe92f46681b20a084111561107f57505f91506003905082611104565b604080515f808252602082018084528a905260ff891692820192909252606081018790526080810186905260019060a0016020604051602081039080840390855afa1580156110d0573d5f803e3d5ffd5b5050604051601f1901519150506001600160a01b0381166110fb57505f925060019150829050611104565b92505f91508190505b9450945094915050565b634e487b7160e01b5f52604160045260245ffd5b60405160e0810167ffffffffffffffff811182821017156111455761114561110e565b60405290565b80356001600160a01b0381168114611161575f80fd5b919050565b5f82601f830112611175575f80fd5b813567ffffffffffffffff808211156111905761119061110e565b604051601f8301601f19908116603f011681019082821181831017156111b8576111b861110e565b816040528381528660208588010111156111d0575f80fd5b836020870160208301375f602085830101528094505050505092915050565b5f8083601f8401126111ff575f80fd5b50813567ffffffffffffffff811115611216575f80fd5b60208301915083602082850101111561122d575f80fd5b9250929050565b5f805f60408486031215611246575f80fd5b833567ffffffffffffffff8082111561125d575f80fd5b9085019060e08288031215611270575f80fd5b611278611122565b6112818361114b565b815261128f6020840161114b565b602082015260408301356040820152606083013560608201526080830135608082015260a0830135828111156112c3575f80fd5b6112cf89828601611166565b60a08301525060c083013560c08201528095505060208601359150808211156112f6575f80fd5b50611303868287016111ef565b9497909650939450505050565b5f60208284031215611320575f80fd5b6113298261114b565b9392505050565b5f5b8381101561134a578181015183820152602001611332565b50505f910152565b5f8151808452611369816020860160208601611330565b601f01601f19169290920160200192915050565b8215158152604060208201525f6113976040830184611352565b949350505050565b803560ff81168114611161575f80fd5b5f805f805f805f805f6101208a8c0312156113c8575f80fd5b6113d18a61114b565b98506113df60208b0161114b565b97506113ed60408b0161114b565b965060608a0135955060808a0135945060a08a0135935061141060c08b0161139f565b925060e08a013591506101008a013590509295985092959850929598565b5f805f805f8060a08789031215611443575f80fd5b61144c8761114b565b955061145a6020880161114b565b94506114686040880161114b565b935060608701359250608087013567ffffffffffffffff81111561148a575f80fd5b61149689828a016111ef565b979a9699509497509295939492505050565b5f805f805f805f80610100898b0312156114c0575f80fd5b6114c98961114b565b97506114d760208a0161114b565b96506114e560408a0161114b565b9550606089013594506080890135935061150160a08a0161139f565b925060c0890135915060e089013590509295985092959890939650565b5f60018060a01b03808a16835280891660208401525086604083015285606083015284608083015260e060a083015261155a60e0830185611352565b90508260c083015298975050505050505050565b634e487b7160e01b5f52601160045260245ffd5b5f600182016115935761159361156e565b5060010190565b81835281816020850137505f828201602090810191909152601f909101601f19169091010190565b604081525f60018060a01b038086511660408401528060208701511660608401525060408501516080830152606085015160a0830152608085015160c083015260a085015160e08084015261161b610120840182611352565b905060c08601516101008401528281036020840152610afe81858761159a565b5f825161164c818460208701611330565b9190910192915050565b838152606060208201525f61166e6060830185611352565b90508215156040830152949350505050565b80820180821115610e9657610e9661156e565b6001600160a01b0397881681529590961660208601526040850193909352606084019190915260ff16608083015260a082015260c081019190915260e00190565b6001600160a01b039384168152919092166020820152604081019190915260600190565b5f60208284031215611708575f80fd5b81518015158114611329575f80fd5b634e487b7160e01b5f52602160045260245ffdfea2646970667358221220d0c61855f79bcdde14a3e6dc33beb920347bd1df0fbbb11a83abcfa11e20b98364736f6c63430008150033",
  "immutableReferences": {},
  "source": "// SPDX-License-Identifier: MIT\npragma solidity ^0.8.0;\n\nimport \"@openzeppelin/contracts/access/Ownable.sol\";\nimport \"@openzeppelin/contracts/token/ERC20/IERC20.sol\";\nimport \"@openzeppelin/contracts/token/ERC721/IERC721.sol\";\nimport \"@openzeppelin/contracts/utils/ReentrancyGuard.sol\";\nimport \"@openzeppelin/contracts/utils/cryptography/ECDSA.sol\";\nimport \"@openzeppelin/contracts/utils/cryptography/MessageHashUtils.sol\";\nimport \"@openzeppelin/contracts/token/ERC20/extensions/IERC20Permit.sol\";\n\ncontract Forwarder is Ownable, ReentrancyGuard {\n    using ECDSA for bytes32;\n    using MessageHashUtils for bytes32;\n\n    struct ForwardRequest {\n        address from;\n        address to;\n        uint256 value;\n        uint256 gas;\n        uint256 nonce;\n        bytes data;\n        uint256 validUntil;\n    }\n\n    mapping(address => uint256) private _nonces;\n    mapping(bytes32 => bool) private _executed;\n\n    event TransactionForwarded(\n        address indexed from,\n        address indexed to,\n        uint256 value,\n        bytes data,\n        bool success\n    );\n\n    event TransferForwarded(\n        address indexed token,\n        address indexed from,\n        address indexed to,\n        uint256 amount\n    );\n\n    constructor() Ownable(msg.sender) {}\n\n    function getNonce(address from) public view returns (uint256) {\n        return _nonces[from];\n    }\n\n    function verify(\n        ForwardRequest memory req,\n        bytes calldata signature\n    ) public pure returns (bool) {\n        bytes32 digest = keccak256(\n            abi.encodePacked(\n                \"\\x19Ethereum Signed Message:\\n32\",\n                keccak256(\n                    abi.encode(\n                        req.from,\n                        req.to,\n                        req.value,\n                        req.gas,\n                        req.nonce,\n                        req.data,\n                        req.validUntil\n                    )\n                )\n            )\n        );\n        address signer = ECDSA.recover(digest, signature);\n        return signer == req.from;\n    }\n\n    function execute(\n        ForwardRequest memory req,\n        bytes calldata signature\n    ) public payable nonReentrant returns (bool, bytes memory) {\n        require(block.timestamp <= req.validUntil, \"Request expired\");\n        require(_nonces[req.from] == req.nonce, \"Invalid nonce\");\n\n        // Skip signature check if called internally via permit flow\n        if (msg.sender != address(this)) {\n            require(verify(req, signature), \"Invalid signature\");\n        }\n\n        _nonces[req.from]++;\n        bytes32 hash = keccak256(abi.encode(req, signature));\n        require(!_executed[hash], \"Request already executed\");\n        _executed[hash] = true;\n\n        (bool success, bytes memory returndata) = req.to.call{\n            gas: req.gas,\n            value: req.value\n        }(req.data);\n\n        emit TransactionForwarded(\n            req.from,\n            req.to,\n            req.value,\n            req.data,\n            success\n        );\n\n        if (!success) {\n            // If the call failed, bubble up the revert reason\n            if (returndata.length > 0) {\n                assembly {\n                    let returndata_size := mload(returndata)\n                    revert(add(32, returndata), returndata_size)\n                }\n            } else {\n                revert(\"Forward request failed\");\n            }\n        }\n\n        return (success, returndata);\n    }\n\n    function forwardERC20Transfer(\n        address token,\n        address from,\n        address to,\n        uint256 amount,\n        bytes calldata signature\n    ) external nonReentrant returns (bool) {\n        bytes memory data = abi.encodeWithSelector(\n            IERC20.transferFrom.selector,\n            from,\n            to,\n            amount\n        );\n\n        ForwardRequest memory req = ForwardRequest({\n            from: from,\n            to: token,\n            value: 0,\n            gas: 100000,\n            nonce: _nonces[from],\n            data: data,\n            validUntil: block.timestamp + 3600\n        });\n\n        (bool success, ) = execute(req, signature);\n        require(success, \"ERC20 forward failed\");\n        return success;\n    }\n\n    function forwardERC721Transfer(\n        address token,\n        address from,\n        address to,\n        uint256 tokenId,\n        bytes calldata signature\n    ) external nonReentrant returns (bool) {\n        bytes memory data = abi.encodeWithSelector(\n            IERC721.transferFrom.selector,\n            from,\n            to,\n            tokenId\n        );\n\n        ForwardRequest memory req = ForwardRequest({\n            from: from,\n            to: token,\n            value: 0,\n            gas: 100000,\n            nonce: _nonces[from],\n            data: data,\n            validUntil: block.timestamp + 3600\n        });\n\n        (bool success, ) = execute(req, signature);\n        require(success, \"ERC721 forward failed\");\n        return success;\n    }\n\n    function forwardERC20TransferWithPermit(\n        address token,\n        address from,\n        address to,\n        uint256 amount,\n        uint256 fee, // Add fee parameter\n        uint256 deadline,\n        uint8 v,\n        bytes32 r,\n        bytes32 s\n    ) external nonReentrant returns (bool) {\n        require(msg.sender == to, \"Only recipient can execute\");\n        require(token != address(0), \"Invalid token address\");\n        require(from != address(0), \"Invalid from address\");\n        require(to != address(0), \"Invalid to address\");\n        require(amount > 0, \"Amount must be greater than 0\");\n        require(deadline >= block.timestamp, \"Permit expired\");\n\n        // Permit for amount + fee\n        IERC20Permit(token).permit(\n            from,\n            address(this),\n            amount + fee,\n            deadline,\n            v,\n            r,\n            s\n        );\n\n        // Transfer main amount to recipient\n        require(\n            IERC20(token).transferFrom(from, to, amount),\n            \"Transfer failed\"\n        );\n\n        // Transfer fee to relayer\n        if (fee > 0) {\n            require(\n                IERC20(token).transferFrom(from, msg.sender, fee),\n                \"Fee transfer failed\"\n            );\n        }\n\n        return true;\n    }\n\n    function forwardTransferWithPermit(\n        address token,\n        address from,\n        address to,\n        uint256 amount,\n        uint256 deadline,\n        uint8 v,\n        bytes32 r,\n        bytes32 s\n    ) external nonReentrant returns (bool) {\n        require(msg.sender == to, \"Only recipient can execute\");\n        require(deadline >= block.timestamp, \"Permit expired\");\n\n        // Execute the permit\n        IERC20Permit(token).permit(\n            from,\n            address(this),\n            amount,\n            deadline,\n            v,\n            r,\n            s\n        );\n\n        // Transfer tokens\n        require(\n            IERC20(token).transferFrom(from, to, amount),\n            \"Transfer failed\"\n        );\n\n        emit TransferForwarded(token, from, to, amount);\n        return true;\n    }\n\n    receive() external payable {}\n\n    // Add an event for debugging\n    event Debug(string message);\n}\n",
  "sourcePath": "C:\\Users\\amane\\Documents\\Dev\\EnoBridge\\Gasless_Forwarder\\contracts\\Forwarder.sol",
  "compiler": {
    "name": "solc",
    "version": "0.8.21+commit.d9974bed.Emscripten.clang"
  },
  "schemaVersion": "3.4.16",
  "updatedAt": "2025-02-21T10:25:20.345Z",
  "networkType": "ethereum",
  "devdoc": {
    "errors": {
      "ECDSAInvalidSignature()": [
        {
          "details": "The signature derives the `address(0)`."
        }
      ],
      "ECDSAInvalidSignatureLength(uint256)": [
        {
          "details": "The signature has an invalid length."
        }
      ],
      "ECDSAInvalidSignatureS(bytes32)": [
        {
          "details": "The signature has an S value that is in the upper half order."
        }
      ],
      "OwnableInvalidOwner(address)": [
        {
          "details": "The owner is not a valid owner account. (eg. `address(0)`)"
        }
      ],
      "OwnableUnauthorizedAccount(address)": [
        {
          "details": "The caller account is not authorized to perform an operation."
        }
      ],
      "ReentrancyGuardReentrantCall()": [
        {
          "details": "Unauthorized reentrant call."
        }
      ]
    },
    "kind": "dev",
    "methods": {
      "owner()": {
        "details": "Returns the address of the current owner."
      },
      "renounceOwnership()": {
        "details": "Leaves the contract without owner. It will not be possible to call `onlyOwner` functions. Can only be called by the current owner. NOTE: Renouncing ownership will leave the contract without an owner, thereby disabling any functionality that is only available to the owner."
      },
      "transferOwnership(address)": {
        "details": "Transfers ownership of the contract to a new account (`newOwner`). Can only be called by the current owner."
      }
    },
    "version": 1
  },
  "userdoc": {
    "kind": "user",
    "methods": {},
    "version": 1
  }
}